{
  "contractName": "YourContract",
  "abi": [
    {
      "inputs": [],
      "stateMutability": "nonpayable",
      "type": "constructor"
    },
    {
      "inputs": [
        {
          "internalType": "address",
          "name": "",
          "type": "address"
        }
      ],
      "name": "DCheck",
      "outputs": [
        {
          "internalType": "bool",
          "name": "",
          "type": "bool"
        }
      ],
      "stateMutability": "view",
      "type": "function",
      "constant": true
    },
    {
      "inputs": [
        {
          "internalType": "address",
          "name": "",
          "type": "address"
        }
      ],
      "name": "Ddetails",
      "outputs": [
        {
          "internalType": "address",
          "name": "dad",
          "type": "address"
        },
        {
          "internalType": "uint256",
          "name": "dbalance",
          "type": "uint256"
        }
      ],
      "stateMutability": "view",
      "type": "function",
      "constant": true
    },
    {
      "inputs": [
        {
          "internalType": "uint256",
          "name": "",
          "type": "uint256"
        }
      ],
      "name": "Mdetails",
      "outputs": [
        {
          "internalType": "string",
          "name": "name",
          "type": "string"
        },
        {
          "internalType": "address",
          "name": "ad",
          "type": "address"
        },
        {
          "internalType": "string",
          "name": "location",
          "type": "string"
        }
      ],
      "stateMutability": "view",
      "type": "function",
      "constant": true
    },
    {
      "inputs": [
        {
          "internalType": "address",
          "name": "",
          "type": "address"
        }
      ],
      "name": "TOCheck",
      "outputs": [
        {
          "internalType": "bool",
          "name": "",
          "type": "bool"
        }
      ],
      "stateMutability": "view",
      "type": "function",
      "constant": true
    },
    {
      "inputs": [
        {
          "internalType": "address",
          "name": "",
          "type": "address"
        }
      ],
      "name": "TOaddetails",
      "outputs": [
        {
          "internalType": "address",
          "name": "toad",
          "type": "address"
        },
        {
          "internalType": "uint256",
          "name": "tobalance",
          "type": "uint256"
        }
      ],
      "stateMutability": "view",
      "type": "function",
      "constant": true
    },
    {
      "inputs": [],
      "name": "ngo",
      "outputs": [
        {
          "internalType": "uint256",
          "name": "id",
          "type": "uint256"
        },
        {
          "internalType": "uint256",
          "name": "balance",
          "type": "uint256"
        }
      ],
      "stateMutability": "view",
      "type": "function",
      "constant": true
    },
    {
      "inputs": [
        {
          "internalType": "uint256",
          "name": "balance",
          "type": "uint256"
        },
        {
          "internalType": "address",
          "name": "ad",
          "type": "address"
        }
      ],
      "name": "addDonors",
      "outputs": [],
      "stateMutability": "nonpayable",
      "type": "function"
    },
    {
      "inputs": [
        {
          "internalType": "uint256",
          "name": "balance",
          "type": "uint256"
        },
        {
          "internalType": "address",
          "name": "ad",
          "type": "address"
        }
      ],
      "name": "addToad",
      "outputs": [],
      "stateMutability": "nonpayable",
      "type": "function"
    },
    {
      "inputs": [
        {
          "internalType": "uint256",
          "name": "num",
          "type": "uint256"
        },
        {
          "internalType": "string",
          "name": "name",
          "type": "string"
        },
        {
          "internalType": "address",
          "name": "ad",
          "type": "address"
        },
        {
          "internalType": "string",
          "name": "location",
          "type": "string"
        }
      ],
      "name": "addingManger",
      "outputs": [],
      "stateMutability": "nonpayable",
      "type": "function"
    },
    {
      "inputs": [
        {
          "internalType": "uint256",
          "name": "amount",
          "type": "uint256"
        },
        {
          "internalType": "address",
          "name": "toad",
          "type": "address"
        }
      ],
      "name": "Transaction",
      "outputs": [],
      "stateMutability": "payable",
      "type": "function",
      "payable": true
    },
    {
      "inputs": [
        {
          "internalType": "uint256",
          "name": "amount",
          "type": "uint256"
        }
      ],
      "name": "Donation",
      "outputs": [],
      "stateMutability": "payable",
      "type": "function",
      "payable": true
    }
  ],
  "bytecode": "0x608060405234801561001057600080fd5b50336000806101000a81548173ffffffffffffffffffffffffffffffffffffffff021916908373ffffffffffffffffffffffffffffffffffffffff1602179055506001600360008060009054906101000a900473ffffffffffffffffffffffffffffffffffffffff1673ffffffffffffffffffffffffffffffffffffffff1673ffffffffffffffffffffffffffffffffffffffff16815260200190815260200160002060006101000a81548160ff0219169083151502179055506104d26001600001819055506000600180018190555061160d806100ef6000396000f3fe60806040526004361061009c5760003560e01c806397ee149c1161006457806397ee149c1461017d578063a113074b146101a6578063a65911ed146101d2578063c3e2b37614610210578063d26c915d14610239578063d8cf7ccb146102765761009c565b80632d21e434146100a15780634ad6d3cd146100ca5780635385fa90146100e6578063563758ea1461010257806362257e4a1461013f575b600080fd5b3480156100ad57600080fd5b506100c860048036038101906100c39190610e1d565b6102b5565b005b6100e460048036038101906100df9190610e5d565b6103d9565b005b61010060048036038101906100fb9190610e1d565b61056b565b005b34801561010e57600080fd5b5061012960048036038101906101249190610e8a565b610750565b6040516101369190610ed2565b60405180910390f35b34801561014b57600080fd5b5061016660048036038101906101619190610e8a565b610770565b604051610174929190610f0b565b60405180910390f35b34801561018957600080fd5b506101a4600480360381019061019f9190610e1d565b6107b4565b005b3480156101b257600080fd5b506101bb61096b565b6040516101c9929190610f34565b60405180910390f35b3480156101de57600080fd5b506101f960048036038101906101f49190610e8a565b61097d565b604051610207929190610f0b565b60405180910390f35b34801561021c57600080fd5b50610237600480360381019061023291906110a3565b6109c1565b005b34801561024557600080fd5b50610260600480360381019061025b9190610e8a565b610b58565b60405161026d9190610ed2565b60405180910390f35b34801561028257600080fd5b5061029d60048036038101906102989190610e5d565b610b78565b6040516102ac939291906111ca565b60405180910390f35b80600560008373ffffffffffffffffffffffffffffffffffffffff1673ffffffffffffffffffffffffffffffffffffffff16815260200190815260200160002060000160006101000a81548173ffffffffffffffffffffffffffffffffffffffff021916908373ffffffffffffffffffffffffffffffffffffffff16021790555081600560008373ffffffffffffffffffffffffffffffffffffffff1673ffffffffffffffffffffffffffffffffffffffff168152602001908152602001600020600101819055506001600660008373ffffffffffffffffffffffffffffffffffffffff1673ffffffffffffffffffffffffffffffffffffffff16815260200190815260200160002060006101000a81548160ff0219169083151502179055505050565b6001600660003373ffffffffffffffffffffffffffffffffffffffff1673ffffffffffffffffffffffffffffffffffffffff16815260200190815260200160002060006101000a81548160ff021916908315150217905561046f576040517f08c379a00000000000000000000000000000000000000000000000000000000081526004016104669061125b565b60405180910390fd5b80600560003373ffffffffffffffffffffffffffffffffffffffff1673ffffffffffffffffffffffffffffffffffffffff1681526020019081526020016000206001015410156104f4576040517f08c379a00000000000000000000000000000000000000000000000000000000081526004016104eb906112c7565b60405180910390fd5b80600560003373ffffffffffffffffffffffffffffffffffffffff1673ffffffffffffffffffffffffffffffffffffffff16815260200190815260200160002060010160008282546105469190611316565b9250508190555080600180016000828254610561919061134a565b9250508190555050565b60011515600360003373ffffffffffffffffffffffffffffffffffffffff1673ffffffffffffffffffffffffffffffffffffffff16815260200190815260200160002060009054906101000a900460ff161515146105fe576040517f08c379a00000000000000000000000000000000000000000000000000000000081526004016105f5906113ec565b60405180910390fd5b8160018001541015610645576040517f08c379a000000000000000000000000000000000000000000000000000000000815260040161063c90611458565b60405180910390fd5b6001600860008373ffffffffffffffffffffffffffffffffffffffff1673ffffffffffffffffffffffffffffffffffffffff16815260200190815260200160002060006101000a81548160ff02191690831515021790556106db576040517f08c379a00000000000000000000000000000000000000000000000000000000081526004016106d2906114c4565b60405180910390fd5b8160018001546106eb9190611316565b600180018190555081600760008373ffffffffffffffffffffffffffffffffffffffff1673ffffffffffffffffffffffffffffffffffffffff1681526020019081526020016000206001016000828254610745919061134a565b925050819055505050565b60086020528060005260406000206000915054906101000a900460ff1681565b60056020528060005260406000206000915090508060000160009054906101000a900473ffffffffffffffffffffffffffffffffffffffff16908060010154905082565b60011515600360003373ffffffffffffffffffffffffffffffffffffffff1673ffffffffffffffffffffffffffffffffffffffff16815260200190815260200160002060009054906101000a900460ff16151514610847576040517f08c379a000000000000000000000000000000000000000000000000000000000815260040161083e906113ec565b60405180910390fd5b80600760008373ffffffffffffffffffffffffffffffffffffffff1673ffffffffffffffffffffffffffffffffffffffff16815260200190815260200160002060000160006101000a81548173ffffffffffffffffffffffffffffffffffffffff021916908373ffffffffffffffffffffffffffffffffffffffff16021790555081600760008373ffffffffffffffffffffffffffffffffffffffff1673ffffffffffffffffffffffffffffffffffffffff168152602001908152602001600020600101819055506001600860008373ffffffffffffffffffffffffffffffffffffffff1673ffffffffffffffffffffffffffffffffffffffff16815260200190815260200160002060006101000a81548160ff0219169083151502179055505050565b60018060000154908060010154905082565b60076020528060005260406000206000915090508060000160009054906101000a900473ffffffffffffffffffffffffffffffffffffffff16908060010154905082565b3373ffffffffffffffffffffffffffffffffffffffff1660008054906101000a900473ffffffffffffffffffffffffffffffffffffffff1673ffffffffffffffffffffffffffffffffffffffff1614610a4f576040517f08c379a0000000000000000000000000000000000000000000000000000000008152600401610a4690611556565b60405180910390fd5b6001600360008473ffffffffffffffffffffffffffffffffffffffff1673ffffffffffffffffffffffffffffffffffffffff16815260200190815260200160002060006101000a81548160ff02191690831515021790555082600460008681526020019081526020016000206000019080519060200190610ad1929190610cd2565b5080600460008681526020019081526020016000206002019080519060200190610afc929190610cd2565b50816004600086815260200190815260200160002060010160006101000a81548173ffffffffffffffffffffffffffffffffffffffff021916908373ffffffffffffffffffffffffffffffffffffffff16021790555050505050565b60066020528060005260406000206000915054906101000a900460ff1681565b6004602052806000526040600020600091509050806000018054610b9b906115a5565b80601f0160208091040260200160405190810160405280929190818152602001828054610bc7906115a5565b8015610c145780601f10610be957610100808354040283529160200191610c14565b820191906000526020600020905b815481529060010190602001808311610bf757829003601f168201915b5050505050908060010160009054906101000a900473ffffffffffffffffffffffffffffffffffffffff1690806002018054610c4f906115a5565b80601f0160208091040260200160405190810160405280929190818152602001828054610c7b906115a5565b8015610cc85780601f10610c9d57610100808354040283529160200191610cc8565b820191906000526020600020905b815481529060010190602001808311610cab57829003601f168201915b5050505050905083565b828054610cde906115a5565b90600052602060002090601f016020900481019282610d005760008555610d47565b82601f10610d1957805160ff1916838001178555610d47565b82800160010185558215610d47579182015b82811115610d46578251825591602001919060010190610d2b565b5b509050610d549190610d58565b5090565b5b80821115610d71576000816000905550600101610d59565b5090565b6000604051905090565b600080fd5b600080fd5b6000819050919050565b610d9c81610d89565b8114610da757600080fd5b50565b600081359050610db981610d93565b92915050565b600073ffffffffffffffffffffffffffffffffffffffff82169050919050565b6000610dea82610dbf565b9050919050565b610dfa81610ddf565b8114610e0557600080fd5b50565b600081359050610e1781610df1565b92915050565b60008060408385031215610e3457610e33610d7f565b5b6000610e4285828601610daa565b9250506020610e5385828601610e08565b9150509250929050565b600060208284031215610e7357610e72610d7f565b5b6000610e8184828501610daa565b91505092915050565b600060208284031215610ea057610e9f610d7f565b5b6000610eae84828501610e08565b91505092915050565b60008115159050919050565b610ecc81610eb7565b82525050565b6000602082019050610ee76000830184610ec3565b92915050565b610ef681610ddf565b82525050565b610f0581610d89565b82525050565b6000604082019050610f206000830185610eed565b610f2d6020830184610efc565b9392505050565b6000604082019050610f496000830185610efc565b610f566020830184610efc565b9392505050565b600080fd5b600080fd5b6000601f19601f8301169050919050565b7f4e487b7100000000000000000000000000000000000000000000000000000000600052604160045260246000fd5b610fb082610f67565b810181811067ffffffffffffffff82111715610fcf57610fce610f78565b5b80604052505050565b6000610fe2610d75565b9050610fee8282610fa7565b919050565b600067ffffffffffffffff82111561100e5761100d610f78565b5b61101782610f67565b9050602081019050919050565b82818337600083830152505050565b600061104661104184610ff3565b610fd8565b90508281526020810184848401111561106257611061610f62565b5b61106d848285611024565b509392505050565b600082601f83011261108a57611089610f5d565b5b813561109a848260208601611033565b91505092915050565b600080600080608085870312156110bd576110bc610d7f565b5b60006110cb87828801610daa565b945050602085013567ffffffffffffffff8111156110ec576110eb610d84565b5b6110f887828801611075565b935050604061110987828801610e08565b925050606085013567ffffffffffffffff81111561112a57611129610d84565b5b61113687828801611075565b91505092959194509250565b600081519050919050565b600082825260208201905092915050565b60005b8381101561117c578082015181840152602081019050611161565b8381111561118b576000848401525b50505050565b600061119c82611142565b6111a6818561114d565b93506111b681856020860161115e565b6111bf81610f67565b840191505092915050565b600060608201905081810360008301526111e48186611191565b90506111f36020830185610eed565b81810360408301526112058184611191565b9050949350505050565b7f666972737420726567697374657220617320646f6e6f72000000000000000000600082015250565b600061124560178361114d565b91506112508261120f565b602082019050919050565b6000602082019050818103600083015261127481611238565b9050919050565b7f62616c616e6365206973206e6f742073756666696369656e7400000000000000600082015250565b60006112b160198361114d565b91506112bc8261127b565b602082019050919050565b600060208201905081810360008301526112e0816112a4565b9050919050565b7f4e487b7100000000000000000000000000000000000000000000000000000000600052601160045260246000fd5b600061132182610d89565b915061132c83610d89565b92508282101561133f5761133e6112e7565b5b828203905092915050565b600061135582610d89565b915061136083610d89565b9250827fffffffffffffffffffffffffffffffffffffffffffffffffffffffffffffffff03821115611395576113946112e7565b5b828201905092915050565b7f796f7520646f65736e2774206861766520616363657373000000000000000000600082015250565b60006113d660178361114d565b91506113e1826113a0565b602082019050919050565b60006020820190508181036000830152611405816113c9565b9050919050565b7f6e6f2073756666696369656e7420616d6f756e74000000000000000000000000600082015250565b600061144260148361114d565b915061144d8261140c565b602082019050919050565b6000602082019050818103600083015261147181611435565b9050919050565b7f6e6f207265636965766572000000000000000000000000000000000000000000600082015250565b60006114ae600b8361114d565b91506114b982611478565b602082019050919050565b600060208201905081810360008301526114dd816114a1565b9050919050565b7f796f757220617265206e6f7420746865206d61696e20506572736f6e20746f2060008201527f616464206d616e67657273000000000000000000000000000000000000000000602082015250565b6000611540602b8361114d565b915061154b826114e4565b604082019050919050565b6000602082019050818103600083015261156f81611533565b9050919050565b7f4e487b7100000000000000000000000000000000000000000000000000000000600052602260045260246000fd5b600060028204905060018216806115bd57607f821691505b602082108114156115d1576115d0611576565b5b5091905056fea2646970667358221220350f5785706fd32768da3a09f0b7dff1c77f49c54a129c311dfdc0506906d4e164736f6c634300080a0033",
  "immutableReferences": {},
  "source": "// SPDX-License-Identifier: MIT\r\npragma solidity ^0.8.10;\r\ncontract YourContract{\r\n    address private main_person;\r\n    //pair<uint,uint> public ngo;\r\n    struct Ngo{\r\n        uint id ;\r\n        uint balance;\r\n    }\r\n    Ngo public ngo;\r\n\r\n    struct donors {\r\n         address dad;\r\n         uint dbalance;\r\n    }\r\n\r\n    struct TOad {\r\n         address toad;\r\n         uint tobalance;\r\n    }\r\n\r\n    struct mangers{\r\n        string name;\r\n        address ad;\r\n        string location;\r\n    }\r\n\r\n    mapping (address => bool) private Mcheck;\r\n    mapping (uint => mangers) public Mdetails;\r\n    mapping (address => donors)public Ddetails;\r\n    mapping (address => bool) public DCheck;\r\n    mapping (address => TOad)public TOaddetails;\r\n    mapping (address => bool) public TOCheck;\r\n\r\n    constructor(){\r\n        main_person = msg.sender;\r\n        Mcheck[main_person] = true;\r\n        ngo.id = 1234;\r\n        ngo.balance = 0;\r\n    }\r\n    modifier ManagerCheck(){\r\n         require(Mcheck[msg.sender]==true , \"you doesn't have access\");\r\n        _;\r\n    }\r\n    \r\n    modifier MainCheck(){\r\n        require(main_person == msg.sender , \"your are not the main Person to add mangers\");\r\n        _;\r\n    }\r\n\r\n    function addDonors (uint balance ,address ad)public {\r\n        Ddetails[ad].dad =ad;\r\n        Ddetails[ad].dbalance = balance;\r\n        DCheck[ad]=true;\r\n    }\r\n\r\n     function addToad (uint balance ,address ad)public ManagerCheck {\r\n        TOaddetails[ad].toad =ad;\r\n        TOaddetails[ad].tobalance = balance;\r\n        TOCheck[ad]=true;\r\n\r\n    }\r\n    function addingManger(uint num ,string memory name , address ad , string memory location ) public MainCheck{\r\n        Mcheck[ad] = true;\r\n        Mdetails[num].name = name;\r\n        Mdetails[num].location = location ;\r\n        Mdetails[num]. ad = ad;\r\n\r\n    }\r\n    function Transaction(uint amount, address toad) public payable ManagerCheck{\r\n        require(ngo .balance >= amount ,\"no sufficient amount\");\r\n        require(TOCheck[toad] = true , \"no reciever\");\r\n        ngo . balance = ngo .balance - amount;\r\n        TOaddetails[toad].tobalance +=amount;\r\n    }\r\n\r\n    function Donation(uint amount)public payable {\r\n        require(DCheck[msg.sender] = true ,\"first register as donor\");\r\n        require(Ddetails[msg.sender].dbalance >=amount , \"balance is not sufficient\");\r\n        Ddetails[msg.sender].dbalance -=amount;\r\n        ngo.balance +=amount;\r\n    }\r\n}",
  "sourcePath": "C:\\Users\\sonuj\\Desktop\\NGO_TRANSACTION\\contracts\\YourContract.sol",
  "compiler": {
    "name": "solc",
    "version": "0.8.10+commit.fc410830.Emscripten.clang"
  },
  "schemaVersion": "3.4.16",
  "updatedAt": "2024-02-27T09:42:48.160Z",
  "networkType": "ethereum",
  "devdoc": {
    "kind": "dev",
    "methods": {},
    "version": 1
  },
  "userdoc": {
    "kind": "user",
    "methods": {},
    "version": 1
  }
}